{
  "_format": "hh-sol-artifact-1",
  "contractName": "DrugAuthenticity",
  "sourceName": "contracts/DrugAuthenticity.sol",
  "abi": [
    {
      "inputs": [],
      "stateMutability": "nonpayable",
      "type": "constructor"
    },
    {
      "inputs": [
        {
          "internalType": "string",
          "name": "_drugCode",
          "type": "string"
        },
        {
          "internalType": "string",
          "name": "_drugName",
          "type": "string"
        },
        {
          "internalType": "string",
          "name": "_producedBy",
          "type": "string"
        }
      ],
      "name": "addDrug",
      "outputs": [
        {
          "internalType": "bool",
          "name": "",
          "type": "bool"
        }
      ],
      "stateMutability": "nonpayable",
      "type": "function"
    },
    {
      "inputs": [
        {
          "internalType": "address",
          "name": "",
          "type": "address"
        }
      ],
      "name": "companies",
      "outputs": [
        {
          "internalType": "string",
          "name": "companyName",
          "type": "string"
        }
      ],
      "stateMutability": "view",
      "type": "function"
    },
    {
      "inputs": [
        {
          "internalType": "uint256",
          "name": "",
          "type": "uint256"
        }
      ],
      "name": "companyAccounts",
      "outputs": [
        {
          "internalType": "address",
          "name": "",
          "type": "address"
        }
      ],
      "stateMutability": "view",
      "type": "function"
    },
    {
      "inputs": [],
      "name": "getCompanies",
      "outputs": [
        {
          "internalType": "address[]",
          "name": "",
          "type": "address[]"
        }
      ],
      "stateMutability": "view",
      "type": "function"
    },
    {
      "inputs": [
        {
          "internalType": "address",
          "name": "_companyAddress",
          "type": "address"
        }
      ],
      "name": "getDrugs",
      "outputs": [
        {
          "components": [
            {
              "internalType": "string",
              "name": "drugCode",
              "type": "string"
            },
            {
              "internalType": "string",
              "name": "drugName",
              "type": "string"
            },
            {
              "internalType": "string",
              "name": "producedBy",
              "type": "string"
            }
          ],
          "internalType": "struct DrugAuthenticity.Drug[]",
          "name": "",
          "type": "tuple[]"
        }
      ],
      "stateMutability": "view",
      "type": "function"
    },
    {
      "inputs": [
        {
          "internalType": "address",
          "name": "_companyAddress",
          "type": "address"
        },
        {
          "internalType": "string",
          "name": "_companyName",
          "type": "string"
        }
      ],
      "name": "setCompany",
      "outputs": [
        {
          "internalType": "bool",
          "name": "",
          "type": "bool"
        }
      ],
      "stateMutability": "nonpayable",
      "type": "function"
    }
  ],
  "bytecode": "0x60806040523480156200001157600080fd5b506200002d3360006200003360201b620008ad1790919060201c565b620002b0565b620000458282620000e660201b60201c565b1562000088576040517f08c379a00000000000000000000000000000000000000000000000000000000081526004016200007f906200025b565b60405180910390fd5b60018260000160008373ffffffffffffffffffffffffffffffffffffffff1673ffffffffffffffffffffffffffffffffffffffff16815260200190815260200160002060006101000a81548160ff0219169083151502179055505050565b60008073ffffffffffffffffffffffffffffffffffffffff168273ffffffffffffffffffffffffffffffffffffffff1614156200015a576040517f08c379a000000000000000000000000000000000000000000000000000000000815260040162000151906200027d565b60405180910390fd5b8260000160008373ffffffffffffffffffffffffffffffffffffffff1673ffffffffffffffffffffffffffffffffffffffff16815260200190815260200160002060009054906101000a900460ff16905092915050565b6000620001c0601f836200029f565b91507f526f6c65733a206163636f756e7420616c72656164792068617320726f6c65006000830152602082019050919050565b6000620002026022836200029f565b91507f526f6c65733a206163636f756e7420697320746865207a65726f20616464726560008301527f73730000000000000000000000000000000000000000000000000000000000006020830152604082019050919050565b600060208201905081810360008301526200027681620001b1565b9050919050565b600060208201905081810360008301526200029881620001f3565b9050919050565b600082825260208201905092915050565b61140f80620002c06000396000f3fe608060405234801561001057600080fd5b50600436106100625760003560e01c80630471c093146100675780630c0b66911461009757806316ca4389146100b5578063355e6ce8146100e5578063a664640914610115578063fb7d459414610145575b600080fd5b610081600480360381019061007c9190610bcf565b610175565b60405161008e9190611098565b60405180910390f35b61009f61035d565b6040516100ac9190611054565b60405180910390f35b6100cf60048036038101906100ca9190610b7b565b6103eb565b6040516100dc9190611098565b60405180910390f35b6100ff60048036038101906100fa9190610b52565b61051e565b60405161010c91906110b3565b60405180910390f35b61012f600480360381019061012a9190610b52565b6105c4565b60405161013c9190611076565b60405180910390f35b61015f600480360381019061015a9190610c66565b61086e565b60405161016c9190611039565b60405180910390f35b600061018b33600161095590919063ffffffff16565b6101ca576040517f08c379a00000000000000000000000000000000000000000000000000000000081526004016101c190611135565b60405180910390fd5b6004846040516101da9190611022565b908152602001604051809103902060009054906101000a900460ff1615610236576040517f08c379a000000000000000000000000000000000000000000000000000000000815260040161022d906110f5565b60405180910390fd5b60006040518060600160405280868152602001858152602001848152509050600260003373ffffffffffffffffffffffffffffffffffffffff1673ffffffffffffffffffffffffffffffffffffffff16815260200190815260200160002060010181908060018154018082558091505060019003906000526020600020906003020160009091909190915060008201518160000190805190602001906102dd929190610a1d565b5060208201518160010190805190602001906102fa929190610a1d565b506040820151816002019080519060200190610317929190610a1d565b505050600160048660405161032c9190611022565b908152602001604051809103902060006101000a81548160ff02191690831515021790555060019150509392505050565b606060038054806020026020016040519081016040528092919081815260200182805480156103e157602002820191906000526020600020905b8160009054906101000a900473ffffffffffffffffffffffffffffffffffffffff1673ffffffffffffffffffffffffffffffffffffffff1681526020019060010190808311610397575b5050505050905090565b600061040133600061095590919063ffffffff16565b610440576040517f08c379a000000000000000000000000000000000000000000000000000000000815260040161043790611115565b60405180910390fd5b6000600260008573ffffffffffffffffffffffffffffffffffffffff1673ffffffffffffffffffffffffffffffffffffffff16815260200190815260200160002090508281600001908051906020019061049b929190610a1d565b506104b08460016108ad90919063ffffffff16565b6003849080600181540180825580915050600190039060005260206000200160009091909190916101000a81548173ffffffffffffffffffffffffffffffffffffffff021916908373ffffffffffffffffffffffffffffffffffffffff160217905550600191505092915050565b60026020528060005260406000206000915090508060000180546105419061130a565b80601f016020809104026020016040519081016040528092919081815260200182805461056d9061130a565b80156105ba5780601f1061058f576101008083540402835291602001916105ba565b820191906000526020600020905b81548152906001019060200180831161059d57829003601f168201915b5050505050905081565b60606105da82600161095590919063ffffffff16565b610619576040517f08c379a000000000000000000000000000000000000000000000000000000000815260040161061090611135565b60405180910390fd5b600260008373ffffffffffffffffffffffffffffffffffffffff1673ffffffffffffffffffffffffffffffffffffffff168152602001908152602001600020600101805480602002602001604051908101604052809291908181526020016000905b8282101561086357838290600052602060002090600302016040518060600160405290816000820180546106ae9061130a565b80601f01602080910402602001604051908101604052809291908181526020018280546106da9061130a565b80156107275780601f106106fc57610100808354040283529160200191610727565b820191906000526020600020905b81548152906001019060200180831161070a57829003601f168201915b505050505081526020016001820180546107409061130a565b80601f016020809104026020016040519081016040528092919081815260200182805461076c9061130a565b80156107b95780601f1061078e576101008083540402835291602001916107b9565b820191906000526020600020905b81548152906001019060200180831161079c57829003601f168201915b505050505081526020016002820180546107d29061130a565b80601f01602080910402602001604051908101604052809291908181526020018280546107fe9061130a565b801561084b5780601f106108205761010080835404028352916020019161084b565b820191906000526020600020905b81548152906001019060200180831161082e57829003601f168201915b5050505050815250508152602001906001019061067b565b505050509050919050565b6003818154811061087e57600080fd5b906000526020600020016000915054906101000a900473ffffffffffffffffffffffffffffffffffffffff1681565b6108b78282610955565b156108f7576040517f08c379a00000000000000000000000000000000000000000000000000000000081526004016108ee906110d5565b60405180910390fd5b60018260000160008373ffffffffffffffffffffffffffffffffffffffff1673ffffffffffffffffffffffffffffffffffffffff16815260200190815260200160002060006101000a81548160ff0219169083151502179055505050565b60008073ffffffffffffffffffffffffffffffffffffffff168273ffffffffffffffffffffffffffffffffffffffff1614156109c6576040517f08c379a00000000000000000000000000000000000000000000000000000000081526004016109bd90611155565b60405180910390fd5b8260000160008373ffffffffffffffffffffffffffffffffffffffff1673ffffffffffffffffffffffffffffffffffffffff16815260200190815260200160002060009054906101000a900460ff16905092915050565b828054610a299061130a565b90600052602060002090601f016020900481019282610a4b5760008555610a92565b82601f10610a6457805160ff1916838001178555610a92565b82800160010185558215610a92579182015b82811115610a91578251825591602001919060010190610a76565b5b509050610a9f9190610aa3565b5090565b5b80821115610abc576000816000905550600101610aa4565b5090565b6000610ad3610ace846111a6565b611175565b905082815260208101848484011115610aeb57600080fd5b610af68482856112c8565b509392505050565b600081359050610b0d816113ab565b92915050565b600082601f830112610b2457600080fd5b8135610b34848260208601610ac0565b91505092915050565b600081359050610b4c816113c2565b92915050565b600060208284031215610b6457600080fd5b6000610b7284828501610afe565b91505092915050565b60008060408385031215610b8e57600080fd5b6000610b9c85828601610afe565b925050602083013567ffffffffffffffff811115610bb957600080fd5b610bc585828601610b13565b9150509250929050565b600080600060608486031215610be457600080fd5b600084013567ffffffffffffffff811115610bfe57600080fd5b610c0a86828701610b13565b935050602084013567ffffffffffffffff811115610c2757600080fd5b610c3386828701610b13565b925050604084013567ffffffffffffffff811115610c5057600080fd5b610c5c86828701610b13565b9150509250925092565b600060208284031215610c7857600080fd5b6000610c8684828501610b3d565b91505092915050565b6000610c9b8383610cbb565b60208301905092915050565b6000610cb38383610fc4565b905092915050565b610cc481611280565b82525050565b610cd381611280565b82525050565b6000610ce4826111f6565b610cee8185611231565b9350610cf9836111d6565b8060005b83811015610d2a578151610d118882610c8f565b9750610d1c83611217565b925050600181019050610cfd565b5085935050505092915050565b6000610d4282611201565b610d4c8185611242565b935083602082028501610d5e856111e6565b8060005b85811015610d9a5784840389528151610d7b8582610ca7565b9450610d8683611224565b925060208a01995050600181019050610d62565b50829750879550505050505092915050565b610db581611292565b82525050565b6000610dc68261120c565b610dd08185611253565b9350610de08185602086016112d7565b610de98161139a565b840191505092915050565b6000610dff8261120c565b610e098185611264565b9350610e198185602086016112d7565b610e228161139a565b840191505092915050565b6000610e388261120c565b610e428185611275565b9350610e528185602086016112d7565b80840191505092915050565b6000610e6b601f83611264565b91507f526f6c65733a206163636f756e7420616c72656164792068617320726f6c65006000830152602082019050919050565b6000610eab601783611264565b91507f6472756720636f646520616c72656164792061646465640000000000000000006000830152602082019050919050565b6000610eeb601483611264565b91507f6f6e6c79206472756720726567697374657265720000000000000000000000006000830152602082019050919050565b6000610f2b601e83611264565b91507f6f6e6c79207265676973746572656420706861726d61636575746963616c00006000830152602082019050919050565b6000610f6b602283611264565b91507f526f6c65733a206163636f756e7420697320746865207a65726f20616464726560008301527f73730000000000000000000000000000000000000000000000000000000000006020830152604082019050919050565b60006060830160008301518482036000860152610fe18282610dbb565b91505060208301518482036020860152610ffb8282610dbb565b915050604083015184820360408601526110158282610dbb565b9150508091505092915050565b600061102e8284610e2d565b915081905092915050565b600060208201905061104e6000830184610cca565b92915050565b6000602082019050818103600083015261106e8184610cd9565b905092915050565b600060208201905081810360008301526110908184610d37565b905092915050565b60006020820190506110ad6000830184610dac565b92915050565b600060208201905081810360008301526110cd8184610df4565b905092915050565b600060208201905081810360008301526110ee81610e5e565b9050919050565b6000602082019050818103600083015261110e81610e9e565b9050919050565b6000602082019050818103600083015261112e81610ede565b9050919050565b6000602082019050818103600083015261114e81610f1e565b9050919050565b6000602082019050818103600083015261116e81610f5e565b9050919050565b6000604051905081810181811067ffffffffffffffff8211171561119c5761119b61136b565b5b8060405250919050565b600067ffffffffffffffff8211156111c1576111c061136b565b5b601f19601f8301169050602081019050919050565b6000819050602082019050919050565b6000819050602082019050919050565b600081519050919050565b600081519050919050565b600081519050919050565b6000602082019050919050565b6000602082019050919050565b600082825260208201905092915050565b600082825260208201905092915050565b600082825260208201905092915050565b600082825260208201905092915050565b600081905092915050565b600061128b8261129e565b9050919050565b60008115159050919050565b600073ffffffffffffffffffffffffffffffffffffffff82169050919050565b6000819050919050565b82818337600083830152505050565b60005b838110156112f55780820151818401526020810190506112da565b83811115611304576000848401525b50505050565b6000600282049050600182168061132257607f821691505b602082108114156113365761133561133c565b5b50919050565b7f4e487b7100000000000000000000000000000000000000000000000000000000600052602260045260246000fd5b7f4e487b7100000000000000000000000000000000000000000000000000000000600052604160045260246000fd5b6000601f19601f8301169050919050565b6113b481611280565b81146113bf57600080fd5b50565b6113cb816112be565b81146113d657600080fd5b5056fea2646970667358221220ccb490f0de71c9348459bb39c818f5f00b317ff973688673c5d147e85005456c64736f6c63430008000033",
  "linkReferences": {},
  "deployedLinkReferences": {}
}